:020000040800F2
:10000000F807002089010008190F0008BD0D00083D
:10001000150F0008450200086124000800000000D8
:100020000000000000000000000000002314000891
:10003000C1080008000000003D100008D9170008A2
:10004000A3010008A3010008A3010008A301000800
:10005000A3010008A3010008A3010008A3010008F0
:10006000A3010008A3010008A3010008A3010008E0
:10007000A3010008A3010008A3010008A3010008D0
:10008000A3010008A3010008A3010008A3010008C0
:10009000E5230008A3010008A301000801090008E6
:1000A000A3010008A3010008A3010008A3010008A0
:1000B000D918000871190008A3010008A30100085D
:1000C000A3010008A3010008A3010008A301000880
:1000D000A3010008D9230008A3010008A301000818
:1000E000EF080008A3010008A301000800F002F8CF
:1000F00000F03AF80AA090E8000C82448344AAF188
:100100000107DA4501D100F02FF8AFF2090EBAE885
:100110000F0013F0010F18BFFB1A43F0010318473B
:10012000F424000014250000103A24BF78C878C1D8
:10013000FAD8520724BF30C830C144BF04680C60ED
:10014000704700000023002400250026103A28BF35
:1001500078C1FBD8520728BF30C148BF0B60704739
:100160001FB51FBD10B510BD00F031F81146FFF7E7
:10017000F7FF02F095F900F04FF803B4FFF7F2FF34
:1001800003BC00F059F800000948804709480047BF
:10019000FEE7FEE7FEE7FEE7FEE7FEE7FEE7FEE737
:1001A000FEE7FEE704480549054A064B7047000094
:1001B0001D180008ED000008F8010020F8070020D5
:1001C000F8030020F8030020704770477047754619
:1001D00000F02CF8AE4605006946534620F00700B3
:1001E000854618B020B5FFF7DDFFBDE820404FF091
:1001F00000064FF000074FF000084FF0000B21F011
:100200000701AC46ACE8C009ACE8C009ACE8C009DD
:10021000ACE8C0098D46704710B50446AFF30080C6
:100220002046BDE81040FFF7A8BF00000048704717
:10023000980100207047000001491820ABBEFEE77E
:100240002600020000BFFEE7B1F5007F3AD00FDCC8
:10025000202928D006DC01291CD004291DD008291A
:1002600040D11DE0402921D0B1F5807F3AD126E070
:10027000B1F5004F31D006DCB1F5806F25D0B1F576
:10028000006F2FD124E0B1F5803F12D0B1F5003FCF
:1002900028D111E0154A826025E00822C26022E0E0
:1002A0001022C2601FE0082202611CE010220261DD
:1002B00019E00822426016E01022426013E0042296
:1002C000426010E0042242600DE0042242600AE035
:1002D000002282610422426005E000228261042241
:1002E000426000E000BF00BF704700000101010054
:1002F00000B587B0254800F04DF804A800F001FAD9
:1003000000208DF816008DF817008DF818008DF874
:1003100019008DF81A008DF81B008DF812008DF869
:10032000130003208DF8140006208DF81500ADF899
:10033000100004A9154800F0E2F800208DF80A002A
:100340008DF80B0001208DF80C0011480078002179
:1003500041EA4010ADF800000020ADF802004FF671
:10036000E070ADF804000020ADF80600ADF808001C
:1003700001208DF80D00684600F034F801220221BA
:10038000024800F0B3F807B000BD00000064004070
:100390001B00002010B504460B48844209D10121FE
:1003A000480600F05DFE00214FF0007000F058FE9E
:1003B00008E00121880600F053FE00214FF0806024
:1003C00000F04EFE10BD00000064004021B9C2687C
:1003D00042F02002C26003E0026942F020020261A2
:1003E0007047000010B50021837A012202FA03F160
:1003F0003D4A126842F001023B4B1A603A4A1C32F5
:1004000012688A43384B1C331A60027BCAB9364AD9
:100410000C3212688A43344B0C331A604288C3880A
:1004200042EA0343304A4032847A42F83430028848
:10043000838842EA03432C4A4032847A02EBC402A6
:100440005360027B012A19D1274A0C3212680A43F1
:10045000254B0C331A604288038842EA0343224A40
:100460004032847A42F83430C288838842EA0343B7
:100470001D4A4032847A02EBC4025360C27A3AB910
:10048000194A121D12688A43174B1B1D1A6006E099
:10049000154A121D12680A43134B1B1D1A6002896C
:1004A00032B9114A143212688A430F4B14331A605E
:1004B0000289012A06D10C4A143212680A430A4BF7
:1004C00014331A60427B012A06D1074A1C32126893
:1004D0000A43054B1C331A60034A126822F00102DA
:1004E000014B1A6010BD0000006600401AB143695C
:1004F0000B43436102E043698B434361704730B56E
:10050000024600200023146824F0020414601468DA
:1005100044F00104146000E05B1C546804F0010422
:100520001CB94FF6FF74A342F6D1546804F00104DD
:100530000CB900206CE08C79012C04D1146844F0D3
:100540008004146003E0146824F080041460CC7903
:10055000012C04D1146844F04004146003E01468D2
:1005600024F0400414600C7A012C04D1146844F087
:100570002004146003E0146824F0200414604C7A12
:10058000012C04D1146844F01004146003E01468D2
:1005900024F0100414608C7A012C04D1146844F007
:1005A0000804146003E0146824F008041460CC7A92
:1005B000012C04D1146844F00404146003E01468AE
:1005C00024F0040414608C78A407CD7844EA056410
:1005D0000D7944EA05444D7944EA05540D886D1EB1
:1005E0002C43D461146824F001041460002300E05B
:1005F0005B1C546804F001041CB14FF6FF74A34265
:10060000F6D1546804F001040CB1002000E0012090
:1006100030BD10B500F5D87303EB01131B6803F070
:1006200004031372137A53B900F5D87303EB011363
:100630001B6840F2FF7404EA5353136009E000F5AD
:10064000D87303EB01131B686FF0604404EAD30313
:10065000536000F5D87303EB01131B6803F002032A
:10066000537200F5D87303EB01135B6803F00F03BB
:10067000937200F5D87303EB01135B681B0AD37404
:1006800000F5D87303EB01139B68D37200F5D873A0
:1006900003EB01139B681C0A147300F5D87303EB7A
:1006A00001139B681C0C547300F5D87303EB011302
:1006B0009B681B0E937300F5D87303EB0113DB6883
:1006C000D37300F5D87303EB0113DB681C0A1474B1
:1006D00000F5D87303EB0113DB681C0C547400F5B0
:1006E000D87303EB0113DB681B0E937421B9C36845
:1006F00043F02003C36003E0036943F02003036178
:1007000010BD00218171C171017241728172C1728B
:100710008170C170032101710221417101210180A9
:10072000704710B502460020936803F08063B3F170
:10073000806F00D110E0936803F00063B3F1006FA5
:1007400001D1012008E0936803F08053B3F1805F8A
:1007500001D1022000E00420042874D002F5C07307
:1007600003EB00131B6803F0010402F5C07303EBF5
:1007700000131C600B7A7BB94B7A0C8843EA445314
:1007800002F5C07404EB00142468234302F5C0741E
:1007900004EB0014236010E00B7A4C6843EAC403B6
:1007A0004C7A234302F5C07404EB001424682343FD
:1007B00002F5C07404EB001423608B7A03F00F037E
:1007C0008B7202F5C07303EB00135B6823F00F0418
:1007D00002F5C07303EB00135C6002F5C07303EB1A
:1007E00000135B688C7A234302F5C07404EB001499
:1007F00063608B7B1C064B7B44EA03440B7B44EA1F
:100800000323CC7A234302F5C07404EB0014A360E5
:100810008B7C1C064B7C44EA03440B7C44EA032398
:10082000CC7B234302F5C07404EB0014E36002F5B3
:10083000C07303EB00131B6843F0010402F5C0739F
:1008400003EB00131C6010BD70B586B00446002594
:10085000002619480078019000208DF80D008DF8D1
:100860000C0008208DF80E0020788DF80F006178BC
:100870008DF81010A1788DF81110E1788DF8121014
:1008800021798DF8131061798DF81410A1798DF804
:10089000151000BF06E00DF10F00405D304486B238
:1008A000681CC5B2072DF6DB8DF8166001A9034858
:1008B000FFF737FF06B070BD1B000020006400404A
:1008C000704708B50E208DF801008DF80000012159
:1008D0000DF1010001F013FC9DF8010000F0FE0095
:1008E0008DF801000221684601F06EFD08BD10B5CB
:1008F000402000F081F810B1402000F077F810BDE2
:100900001FB5402000F078F8002855D0402000F0B6
:100910006DF84020009000208DF8040008208DF82C
:10092000050000208DF80600684600F079F82021C7
:10093000294800F0FEF902202849087000212848C3
:1009400001F05CF800BF01200290012102A801F033
:10095000D6FB03A801F0C8FB9DF80C00A02800D12D
:1009600029E09DF8080000F02000202803D003A80B
:1009700001F0E6F919E09DF8080000F004000428F1
:1009800006D101201749087003A801F029FB0CE0EB
:100990009DF8080000F01000102803D103A801F012
:1009A0001FFB02E003A801F0DDFB0F48806800F0A8
:1009B00010001028C7D000BF4020009000208DF804
:1009C000040008208DF8050001208DF80600684617
:1009D00000F026F81FBD0000000C0140510000206F
:1009E000000400400300002000100140014908609D
:1009F0007047000014040140014600200022074B0C
:100A00001B6803EA0102054B14331B680B4013B14A
:100A10000AB1012000E000207047000000040140FE
:100A2000002123498279002A3AD00A4612680368D5
:100A30009A430B461A600A1D126803689A430B1DFD
:100A40001A60027911440A6803681A430A60184A56
:100A50000832126803689A43154B08331A601A1D4E
:100A6000126803689A43124B0C331A604279102AB9
:100A70000ED11A1F126803681A430D4B08331A600F
:100A80001A1D126803681A43094B0C331A600DE0F3
:100A90000749427911440A6803681A430A6005E06D
:100AA000027911440A6803689A430A60704700009B
:100AB0000004014008B50D208DF801008DF80000FC
:100AC00001210DF1010001F01AFB9DF8010040F039
:100AD00001008DF801000221684601F075FC08BD97
:100AE0001CB54020FFF782FF0621012000F074F8BA
:100AF0004020009000208DF8040008208DF80500AB
:100B000001208DF806006846FFF78AFF1CBD000033
:100B100001460020034A106800F0380008431060C6
:100B2000704700000020024008B50121082000F0B5
:100B3000A7FA2020ADF8000002208DF80200102056
:100B40008DF803006946224800F066F8FF20ADF8F2
:100B5000000002208DF8020004208DF80300694691
:100B60001C4800F059F88020ADF8000002208DF8F4
:100B7000020014208DF803006946154800F04CF877
:100B80004020ADF8000002208DF8020004208DF80E
:100B9000030069460E4800F03FF84FF40060ADF8DE
:100BA000000048208DF8030069460A4800F034F838
:100BB0004FF48050ADF8000003208DF8020018209B
:100BC0008DF803006946034800F026F808BD0000D0
:100BD000000C01400008014030B500228B071C0FBB
:100BE0000F2303FA04F20B4B8C1053F82430934379
:100BF000084C8D1044F8253023468C1053F82430CF
:100C00008C07240F00FA04F42343024C8D1044F89F
:100C1000253030BD080001402DE9F0410246002595
:100C20000026002000230024002791F803C00CF0C8
:100C30000F0591F803C00CF0100CBCF1000F03D0AD
:100C400091F802C04CEA050591F800C0BCF1000F14
:100C500031D0146800202BE04FF0010C0CFA00F3A7
:100C6000B1F800C00CEA03069E4220D183004FF089
:100C70000F0C0CFA03F7BC4305FA03FC4CEA04041E
:100C800091F803C0BCF1280F06D14FF0010C0CFA0B
:100C900000FCC2F814C00AE091F803C0BCF1480F90
:100CA00005D14FF0010C0CFA00FCC2F810C0401C3A
:100CB0000828D1D31460B1F800C0BCF1FF0F34DDB7
:100CC000546800202EE000F1080C4FF0010808FAEB
:100CD0000CF3B1F800C00CEA03069E4221D1830058
:100CE0004FF00F0C0CFA03F7BC4305FA03FC4CEA77
:100CF000040491F803C0BCF1280F05D100F1080CE1
:100D000008FA0CF8C2F8148091F803C0BCF1480F3F
:100D100007D100F1080C4FF0010808FA0CF8C2F8EE
:100D20001080401C0828CED35460BDE8F08141619A
:100D300070470161704700003EB5044600208DF801
:100D4000000025208DF8010001208DF8020002200E
:100D50008DF803000421684601F036FB062001F0FF
:100D600081FB00208DF800000121684601F0C7F9E1
:100D700001208DF800000121684601F0C0F906202D
:100D80000D490870204600F01BF8054600208DF83C
:100D9000000001208DF801000221684601F014FBDB
:100DA000062001F05FFB0C208DF800000121684651
:100DB00001F0A5F93EBD00000C00002000BFFEE7D9
:100DC0002DE9F84F074601254FF0000B02264FF0A2
:100DD000000A4A48007800F0200010B91126FFF7F9
:100DE00069FE4FF003088F20454908709120487034
:100DF0003D2088704FEA1820C8704FEA081008712B
:100E00003E4800784871012088710020C8710C208C
:100E100000900121684601F072F90821384800F07D
:100E2000AFFB0020374908700120374908700125C1
:100E300043E00120354908700A2001F013FB4FF010
:100E4000000A0AE00AF1010ABAF5FA7F05D100208A
:100E50002D4908702E49087003E02B4800780128BE
:100E6000F0D000BF28480078FF2801D14FF0010BD7
:100E70000F200090684600F05DFF112E11D1102D5B
:100E80000FDA16200090684600F054FF17200090FB
:100E9000684600F04FFF14200090684600F04AFFBB
:100EA00009E0112E04D1102D02D1FFF70AFD02E056
:100EB000022E00D103E0681CC5B2B542B9DB00BF09
:100EC000BBF1000F0DD0002406E0C4F10A000C496C
:100ED000085C3855601CC4B2082CF6DB4FF00109E1
:100EE00009E0002403E000203855601CC4B2082C3F
:100EF000F9DB4FF000094846BDE8F88F0C000020F0
:100F00006C0000200D000020500000200E0000208A
:100F10000F00002000BFFEE7704708B500214FF02A
:100F2000006000F081F84FF4E06000F073F81720E3
:100F30008DF8000000208DF801008DF802000120DE
:100F40008DF80300684600F02DF814208DF800009D
:100F500000208DF8010002208DF8020001208DF89C
:100F60000300684600F01EF81C208DF800000020E9
:100F70008DF8010003208DF8020001208DF8030098
:100F8000684600F00FF81D208DF8000000208DF855
:100F900001008DF8020001208DF80300684600F082
:100FA00001F808BD70B5002100230F22C47804B3F6
:100FB000154C246804F4E064C4F5E064210AC1F12E
:100FC0000403CA40447804FA03F1847814402143AE
:100FD00009010E4C0678A155047804F01F05012480
:100FE000AC4005786D11AD0005F1E025C5F8004174
:100FF00009E0047804F01F050124AC40044D067894
:10100000761145F8264070BD0CED00E000E400E0EC
:1010100080E100E002490143024A1160704700008C
:101020000000FA050CED00E0024A0A400243024BC0
:101030001A60704780FFFF1F08ED00E07047000056
:1010400029B1064AD2690243044BDA6104E0034A3B
:10105000D2698243014BDA61704700000010024000
:1010600029B1064A12690243044B1A6104E0034A9B
:1010700012698243014B1A61704700000010024060
:1010800029B1064A92690243044B9A6104E0034A7B
:1010900092698243014B9A61704700000010024040
:1010A00029B1064AD2680243044BDA6004E0034ADD
:1010B000D2688243014BDA607047000000100240A2
:1010C00010B500F03DF84FF4803000F091F800F0DA
:1010D000EDF80446012C21D1002000F07DF800201D
:1010E00000F0B8F8A00200F0A9F80220FFF710FD08
:1010F0004FF4E011200400F0BFF8012000F0B6F832
:1011000000BF392000F042F80028FAD0022000F099
:10111000C1F800BF00F058F80828FBD101210D20CC
:10112000FFF7AEFF01218803FFF7AAFF0121480660
:10113000FFF786FF01210846FFF782FF10BD000080
:101140000F48006840F001000D49086008464068FB
:101150000C4908400A494860084600680A490840A6
:10116000074908600846006820F4802008600846A7
:10117000406820F4FE0048604FF41F00886070470C
:10118000001002400000FFF8FFFFF6FE10B5014618
:101190000022002300204A11012A02D1094C2368B1
:1011A00006E0022A02D1074C236A01E0054C636A7B
:1011B00001F01F02012494401C400CB1012000E00A
:1011C000002010BD001002400248406800F00C00F2
:1011D000704700000010024001460020034A50689A
:1011E00020F0F000084350607047000000100240FB
:1011F0001149096821F480310F4A116011460968CC
:1012000021F480211160B0F5803F03D0B0F5802F2C
:101210000ED106E00849096841F48031064A1160A0
:1012200007E00549096841F4A021034A116000E084
:1012300000BF00BF704700000010024001460020C0
:10124000034A506820F4E060084350607047000093
:101250000010024001460020034A506820F460500C
:1012600040EAC10050607047001002400149086622
:10127000704700000000424202460020044B5868BC
:1012800020F47C1042EA01031843014B5860704778
:101290000010024001460020034A506820F003007D
:1012A00008435060704700000010024038B500202D
:1012B00000900024002500BF3120FFF767FF05469E
:1012C0000098401C00900098B0F5A06F01D0002D50
:1012D000F2D03120FFF75AFF08B1012400E00024CA
:1012E000204638BD21B1028842F04002028004E06D
:1012F00002884FF6BF731A400280704700B587B06E
:1013000001211C20FFF7BCFE01218803FFF798FE96
:101310004FF48050ADF8040003208DF80600102033
:101320008DF8070001A92348FFF776FC4FF4204011
:10133000ADF8040003208DF8060018208DF8070092
:1013400001A91C48FFF768FC4FF48040ADF8040089
:1013500004208DF8070001A91648FFF75DFC4FF443
:1013600080511448FFF7E5FC0020ADF808004FF469
:101370008270ADF80A000020ADF80C00ADF80E0048
:101380000120ADF810004002ADF812001020ADF8B9
:1013900014000020ADF816000720ADF8180002A9CF
:1013A000054800F01CF801210348FFF79BFF07B038
:1013B00000BD0000000C014000380040CA4302811B
:1013C00070470246002013890B400BB1012000E05A
:1013D000002070470146888970478181704710B5A9
:1013E0000022028802F441520B884C8823438C88E7
:1013F0002343CC8823430C8923434C8923438C8982
:101400002343CC8923431A430280838B4FF2FF741A
:10141000234083830B8A038210BD10B5FFF76EFF54
:1014200010BD704710B500F001F810BD0CB50020DC
:10143000019000903348006840F4803031490860E2
:1014400000BF3048006800F4003000900198401C54
:101450000190009818B90198B0F5A06FF1D1294812
:10146000006800F4003010B10120009001E000207D
:1014700000900098012843D12348006840F01000F4
:10148000214908600846006820F00300086008460B
:10149000006840F0020008601A4840681949486036
:1014A0000846406848600846406840F480604860EC
:1014B0000846406820F47C1048600846406840F4C4
:1014C000E81048600846006840F08070086000BF7F
:1014D0000C48006800F000700028F9D00948406806
:1014E00020F00300074948600846406840F00200C9
:1014F000486000BF0348406800F00C000828F9D19C
:101500000CBD0000001002400020024010B504464F
:101510004FF480511748FFF70AFC207840F0800014
:101520002070207800F09F00207000BF0221124838
:10153000FFF747FF0028F9D021780F48FFF74DFF4C
:1015400000BF01210C48FFF73CFF0028F9D00A48F2
:10155000FFF740FF0949087000BF80210648FFF7E8
:1015600030FF0128F9D04FF480510248FFF7E1FB2A
:1015700010BD0000000C01400038004002000020B7
:1015800070B504460D464FF480511648FFF7CFFB67
:1015900019E000BF02211448FFF713FF0028F9D01B
:1015A00021781148FFF719FF00BF01210E48FFF70E
:1015B00008FF0028F9D00C48FFF70CFF0B49087012
:1015C000641C681EC5B2002DE3DC00BF8021064804
:1015D000FFF7F7FE0128F9D04FF480510148FFF7DB
:1015E000A8FB70BD000C0140003800400200002044
:1015F00070B504460D464FF480512548FFF797FB20
:10160000207840F060002070207800F07F0020708B
:1016100000BF02211F48FFF7D4FE0028F9D021782F
:101620001C48FFF7DAFE00BF01211A48FFF7C9FE88
:101630000028F9D01748FFF7CDFE1749087018E0C9
:1016400000BF02211348FFF7BCFE0028F9D000219B
:101650001048FFF7C2FE00BF01210E48FFF7B1FEA0
:101660000028F9D00B48FFF7B5FE2070641C681EF7
:10167000C5B2002DE4DC00BF80210648FFF7A1FEC3
:101680000128F9D04FF480510148FFF752FB70BD9B
:10169000000C0140003800400200002070B50446F4
:1016A0000D464FF480512548FFF741FB37E0207885
:1016B00040F040002070207800F05F00207000BFF4
:1016C00002211F48FFF77DFE0028F9D021781C4831
:1016D000FFF783FE00BF01211948FFF772FE0028C3
:1016E000F9D01748FFF776FE1649087000BF0221AF
:1016F0001348FFF766FE0028F9D000211048FFF7D5
:101700006CFE00BF01210E48FFF75BFE0028F9D0F8
:101710000B48FFF75FFE2070641C681EC5B2002DE9
:10172000C5DC00BF80210648FFF74BFE0128F9D039
:101730004FF480510148FFF7FCFA70BD000C0140E6
:10174000003800400200002070B504460D46002617
:101750004FF480511D48FFF7EAFA27E0207800F0A7
:101760001F00207000261FE002211948FFF726FE07
:1017700000BF02211648FFF724FE0028F9D0217887
:101780001348FFF72AFE00BF01211148FFF719FE99
:101790000028F9D00E48FFF71DFE0E490870641CA2
:1017A000681EC5B2701CC6B2022EDDDB002DD5DC72
:1017B00000BF80210648FFF704FE0128F9D04FF44E
:1017C00080510248FFF7B5FA70BD0000000C0140DF
:1017D0000038004002000020704700004FF0E02178
:1017E000096921F004014FF0E0221161C21700EBFA
:1017F0005272C2F3C702074B1A701946097801EBFF
:101800004102C2EBC1114FF6FF7202EAC101024A66
:1018100011807047640000206600002010B5134856
:10182000006840F00100114908600846406810490E
:1018300008400E494860084600680E4908400B49B8
:1018400008600846006820F4802008600846406868
:1018500020F4FE0048604FF41F008860FFF7E2FDAF
:101860004FF000600449086010BD00000010024005
:101870000000FFF8FFFFF6FE08ED00E00EB50121C5
:101880000846FFF7DDFB4FF0804000F0C3F840F260
:10189000E730ADF8040048F69F40ADF800000020A6
:1018A000ADF80600ADF8020069464FF0804000F048
:1018B000C1F90121880700F09BF80121880700F099
:1018C0008BF801221146900700F0A9F90121880741
:1018D00000F094F80EBD000010B50121880700F05B
:1018E0008DF988B10948007818B1002007490870BF
:1018F00006E020210648FFF71AFA01200349087084
:101900000121880700F077F810BD000010000020CA
:10191000000C01400EB501210220FFF791FB134896
:1019200000F078F84FF47A70ADF8040041F61F40EB
:10193000ADF800000020ADF80600ADF802006946E1
:101940000A4800F077F90121084800F051F8012118
:10195000064800F041F801221146044800F05FF902
:101960000021024800F04AF80EBD000000040040CB
:1019700008B50121154800F041F928B300211348AA
:1019800000F03CF80021114800F052F90320104902
:101990000870684600F0A8FB9DF8000000F0F70012
:1019A0008DF800009DF8000018B19DF80000802817
:1019B00003D100200749087002E0012005490870A2
:1019C0000121024800F017F808BD000000040040A3
:1019D000510000205000002021B1028842F0800216
:1019E000028004E002884FF67F731A40028070473D
:1019F000CA4302827047CA430282704721B10288FB
:101A000042F00102028004E002884FF6FE731A40A1
:101A10000280704710B504466848844208D101210D
:101A2000C014FFF73DFB0021E014FFF739FBC4E0D1
:101A3000B4F1804F08D101210846FFF711FB0021C6
:101A40000120FFF70DFBB8E05D48844208D1012179
:101A50000220FFF705FB00210220FFF701FBACE0AD
:101A60005848844208D101210420FFF7F9FA0021E7
:101A70000420FFF7F5FAA0E05348844208D1012181
:101A80000820FFF7EDFA00210820FFF7E9FA94E0BB
:101A90004E48844208D101211020FFF7E1FA0021CD
:101AA0001020FFF7DDFA88E04948844208D101217F
:101AB0002020FFF7D5FA00212020FFF7D1FA7CE0A3
:101AC0004448844208D101214014FFF7E9FA00217B
:101AD0006014FFF7E5FA70E03F48844209D1012124
:101AE000C804FFF7DDFA00214FF40020FFF7D8FA11
:101AF00063E03A48844209D101210805FFF7D0FA92
:101B000000214FF48010FFF7CBFA56E034488442AE
:101B100009D101214805FFF7C3FA00214FF4001055
:101B2000FFF7BEFA49E02F48844208D10121402046
:101B3000FFF796FA00214020FFF792FA3DE02A488D
:101B4000844208D101218020FFF78AFA00218020F9
:101B5000FFF786FA31E02548844208D1012180153B
:101B6000FFF77EFA0021A015FFF77AFA25E020485A
:101B7000844209D101210804FFF792FA00214FF4B1
:101B80008030FFF78DFA18E01A48844209D101210C
:101B90004804FFF785FA00214FF40030FFF780FA80
:101BA0000BE01548844208D101218804FFF778FA38
:101BB00000214FF48020FFF773FA10BD002C014084
:101BC0000004004000080040000C004000100040ED
:101BD0000014004000340140004C0140005001401E
:101BE0000054014000180040001C0040002000404C
:101BF00000400140004401400048014030B5024629
:101C0000002000230024158A05EA0103958905EACE
:101C1000010413B10CB1012000E0002030BD1AB165
:101C200083890B43838102E083898B4383817047DF
:101C300081847047002202881D4B98420ED01D4BB4
:101C400098420BD0B0F1804F08D01B4B984205D082
:101C50001A4B984202D01A4B984204D14FF68F7318
:101C60001A404B881A43174B984207D0164B98429C
:101C700004D04FF6FF431A40CB881A4302808B886A
:101C800083850B8803850A4B98420BD0094B9842F9
:101C900008D00E4B984205D00D4B984202D00D4B08
:101CA000984201D10B7A038601238382704700009A
:101CB000002C0140003401400004004000080040B6
:101CC000000C0040001000400014004000400140A3
:101CD000004401400048014008B501210820FFF7F9
:101CE000CFF94FF46070ADF8000003208DF80200CA
:101CF00010208DF8030069460D48FEF78DFF402047
:101D0000ADF8000003208DF8020028208DF80300B4
:101D100069460748FEF780FF4FF480710448FFF7DB
:101D200006F84FF400710248FFF701F808BD000003
:101D3000000C014010B504462046FFF7E7FB10BD3C
:101D400010B504462078A02803D100207E490870F1
:101D5000F7E02078802805D100207B49087000F04A
:101D6000D7F9EEE0207800F00200022808D1764989
:101D7000087000F0EDF900F0CBF900F0D3F9E0E0E5
:101D80002078402833D171480078022802D16E496A
:101D9000087010BD1C2020700121204600F0AFF912
:101DA000207800F07F002070694890F900000A2830
:101DB00002DD0120664908701F206649644A92F9D5
:101DC000002088542178634A614B93F90030D01881
:101DD00000F082F920785E490978084440B25C49F5
:101DE000087000F095F9FF2057490870A9E02078A5
:101DF000602857D10120544908701F205549544A82
:101E000092F900208854524A92F90020881809213A
:101E100000F062F94E480078093040B24C49087031
:101E20004D48806800F01000102831D1204600F0A5
:101E30005BF92078402824D11C2020700121204605
:101E400000F05DF9207800F07F0020701F214148EC
:101E50003F4A92F900208154217802463C4B93F985
:101E60000030D01800F038F9207839490978084452
:101E700040B237490870FF203349087000F048F934
:101E80005FE0207850285CD102202F49087058E08C
:101E9000204600F029F92078002852D1FF202A4955
:101EA00008704EE0207800F01000102824D120782F
:101EB00000F02000202805D10120234908700220CD
:101EC00022490870207800F04000402810D11F20DF
:101ED000204981F8C80001211E48C83000F0FCF8F4
:101EE00000F016F90220184908701849087028E017
:101EF00002201549087024E0207800F0040004282E
:101F00000FD1207800F02000202806D101200E49B2
:101F1000087002200D49087013E002200A49087079
:101F20000FE02078012803D100200749087008E05D
:101F300002200549087000F00BF900F0E9F800F004
:101F4000F1F800BF25E7000050000020130000203A
:101F5000140000206C0000200010014010B5032088
:101F60001E4908700846FFF7E5FE00201B4908706F
:101F70000846FFF7DFFE4FF4FA7000F073FA09200D
:101F800016490870212048700221144800F01CFAFC
:101F90000920124908700121104800F0B0F8002013
:101FA0000E490870487001210C48401C00F0A7F849
:101FB0000A48407840F00400084948700221074868
:101FC00000F002FA0020054908700121034800F0E2
:101FD00096F80A2000F046FA10BD00000800002024
:101FE00010B504462078012803D102203749087033
:101FF0006AE02078022803D100203449087063E0A9
:102000002078082803D10020304908705CE020784F
:1020100000F0100010280BD10A202070012120466A
:1020200000F06DF800F094F80220284908704BE0A9
:102030002078802805D100202449087000F068F835
:1020400042E02078402802D0207844282CD10A2071
:1020500020700121204600F052F81C202070012140
:10206000204600F04CF8207800F07F0020701F2000
:102070001749184AB2F9002088542178144A154BA0
:10208000B3F90030D01800F027F8207811490988FA
:10209000084400B20F49088000F03AF8FF200B49CD
:1020A000087000F03FF80FE02078602802D0207818
:1020B000642803D101200549087005E020784828EC
:1020C00002D100200149087010BD0000500000201E
:1020D0006C0000201600002070B504460D4629460D
:1020E0002046FFF785FA70BD10B504460C2020701D
:1020F0000D20607002212046FFF7EEFF10BD70B585
:1021000004460D4629462046FFF7C8FA70BD000078
:1021100010B50F20024908700846FFF70BFE10BDEE
:102120000A00002008B50C208DF800000D208DF865
:10213000010002216846FFF7CFFF08BD10B5172048
:10214000024908700846FFF7F5FD10BD0A0000209F
:1021500010B51620024908700846FFF7EBFD10BDC8
:102160000A00002038B50446207840286FD100BF0F
:102170001920009001216846FFF7C1FF9DF800007B
:1021800000F03F00009001208A4981F832009DF85C
:102190000000092825D10120874908701C202070E3
:1021A00001212046FFF7ABFF207800F07F00207070
:1021B0001F218048814AB2F90020815421780246CB
:1021C0007E4BB3F90030D018FFF786FF20787B49AB
:1021D0000988084400B279490880FF2078490870CE
:1021E000E5E01C20207001212046FFF788FF2078C1
:1021F00000F07F0020701F206E49704AB2F9002065
:10220000885421786B4A6D4BB3F90030D018FFF732
:1022100063FF207869490988084400B2674908804B
:10222000FF20674908709DF80000012810D129207F
:10223000604981F8330002215E48323000F0C4F872
:1022400002205D490870FF205E490870AFE063E03E
:102250009DF8000005280FD12520564981F833004C
:1022600002215448323000F0AFF80720524908707C
:102270000020544908709AE09DF80000122823D1EC
:102280004C48407806280FD122204A4981F8330073
:1022900002214848323000F097F803204649087080
:1022A00000204849087082E02A20424981F8330022
:1022B00002214048323000F087F804203E4908707F
:1022C000FF204049087072E09DF8000013286ED18D
:1022D0003848407806280FD12320364981F833004A
:1022E00002213448323000F06FF80520324908707E
:1022F0000020344908705AE02B202E4981F8330021
:1023000002212C48323000F05FF806202A4908707C
:10231000FF202C4908704AE02078602818D101205D
:10232000274908701F202349244AB2F90020885405
:10233000224AB2F9002088181A21FFF7CDFE1F4863
:1023400000881A3000B21D490880FFF7EBFE2EE02E
:10235000207800F00800082812D1FF2018490870E2
:10236000002501E0681CC5B2FF2DFBDB01201249EE
:102370000870FFF7CDFEFFF7EBFEFFF7DFFE16E07C
:102380002078442809D12046FFF7AEFE2078402867
:1023900000D1EDE6207850B903E02078042806D17A
:1023A00000BFFFF7B5FEFFF7D3FEFFF7C7FEFFF74D
:1023B000B9FE38BD6C00002005000020160000208A
:1023C000500000200000002070B504460D4629464C
:1023D0002046FFF7B9F970BD01480088704700003A
:1023E0000038014000B585B06A4600211748FEF765
:1023F00010F91749009808809DF80B0015490870DE
:102400009DF80C0048709DF80D0088709DF80E0036
:10241000C8709DF80F0008719DF8100048719DF874
:10242000110088719DF81200C87101200A490870D6
:1024300000210648FDF7CAFF02210448FDF704FF0A
:1024400001200649087005B000BD0000006400408E
:1024500052000020560000205500002054000020AB
:1024600000BFFEE701460D4A12884A434FF0E023C1
:102470005A6100229A6101221A6100BF4FF0E022E6
:10248000106900F001021AB100F48032002AF5D080
:1024900000224FF0E0231A619A6170476600002025
:1024A0001CB50024FEF70CFEFEF737FDFEF73CFBE3
:1024B000FEF716FBFFF7E2F9FFF72CFA4FF4805115
:1024C0004D48FEF736FCFEF7A8FFFFF705FCFDF7C9
:1024D0000FFF4820FFF782F920214748FEF727FC2D
:1024E00080214548FEF723FC4FF4FA70FFF7BAFF4E
:1024F00080214148FEF71DFC4FF4FA70FFF7B2FF50
:102500004FF480513C48FEF714FCFFF727FD0A20EA
:10251000FFF7A8FF012039490870002038490870EA
:102520000120384908700020374908700A20FFF759
:1025300099FF5FE0C820FFF795FF3448FEF7FCFBEA
:1025400000244AE03148005D3149095D884242D0AB
:102550002E48005DF0B35A208DF8000040208DF821
:10256000010000208DF80200284800788DF8030053
:10257000264840788DF80400244880788DF80500BE
:102580002248C0788DF806006846FEF75DF93220D3
:10259000FFF768FF5A208DF8000041208DF80100F8
:1025A00000208DF80200194800798DF803001748C3
:1025B00040798DF80400154880798DF8050013489E
:1025C000C0798DF806006846FEF73EF93220FFF725
:1025D00049FF04E0FFE7601CC4B2082CB2DB00BF77
:1025E000002405E00948005D09490855601CC4B293
:1025F000082CF7DB9EE70000000C014011000020D2
:102600001A000020190000201800002040000020BF
:102610004800002034260008000000206C00000064
:1026200028010008A02600086C0000208C0700008C
:10263000440100080000000000000000000000004D
:102640000000000000000000010000000001000D7B
:102650000000005A0100000000000000010002001C
:102660000300040005000600070008000000000049
:10267000000000000000000000000000000000005A
:10268000000000000000000000000000000000004A
:10269000000000000000000000000000000000003A
:04000005080000ED02
:00000001FF
